:1000000000308A005B2C00000A108A100A11820757
:1000100028340C34013406340A108A100A1182077D
:10002000543445344D3450344534523441345434CE
:1000300055345234453400340A108A100A118207AC
:10004000543465346D3470343A34003438308400BC
:100050008313000803193A280130F800F701F70B61
:100060002F28F80B2E284A30F700F70B35283828B0
:10007000800B2C2800343F183F280812402808160F
:10008000831608128312BF1847288812482888163A
:100090008316881283123F194F2808135028081717
:1000A000831608138312BF195728881358288817F6
:1000B0008316881300008312081583160811602820
:1000C000831208118316081183120034C0018316AD
:1000D000081600308312081A0130C00483168816EF
:1000E00000308312881A0130F7000310F70D7708EB
:1000F000C0048316081700308312081B0130F70074
:10010000F70DF70DFC30F7057708C0048316881744
:1001100000308312881B0130F700F70DF70DF70D43
:10012000F830F7057708C0044008F80000340810DC
:100130008316081008168816081788178312881463
:10014000831688100000831208158316081100001A
:10015000831266207808BF0008118316081100007A
:100160008312081583160811000083126620780890
:10017000BE0008118316081108128812081388138C
:1001800083123F0EF700F030F70577083E04F800C1
:100190007808BE00BE1FCE2883169A28BC08031D0F
:1001A000D3280810D42808148316081000008312DE
:1001B0008810831688100000831208118316081116
:1001C00083123D0EBE000F30BE053E08BF003B202F
:1001D0003D080F39BE00BF003B20003483160812D3
:1001E0008812081388130811081088108312081049
:1001F0008316081083128810831688108312081142
:10020000831608110F308312B80026200130AA008F
:100210002A08033C031C14290330BF003B2005308F
:10022000B8002620AA0A08290230BF003B20AA01F4
:100230002A08033C031C25292A080420AB00BC0122
:100240002B08BD009720AA0A18298A110A12912C9E
:10025000390B2C29BA0140293908023C031D3329E6
:100260004030BA0040293908033C031D3A291430B4
:10027000BA0040293908043C031D40295430BA0013
:1002800001303802BA073A088038BB00BC013B088D
:10029000BD009720003437080C3A03195629063A56
:1002A00003195E29023A031964296929BC01013046
:1002B000BD0097200230B80026206F290130B80019
:1002C0000230B90028216F29BC011030BD009720F1
:1002D0006F290130BC003708BD0097206F2900341A
:1002E0008E30F7002B08F8002A08F900FA01F80808
:1002F000031D84297908F800F9010830F702F8088D
:10030000031D8429F7018C290310F81B8B29F90D93
:10031000F80DF7038429F8138A110A12CC2C2A0845
:100320000319542AB6002E080319542AB602031CD6
:100330009E297F30B6070318542AA4298130B602BB
:10034000031C542A0319542A3608F700F801F9014E
:10035000FA01B5012B08B400B4172C08B3002D081E
:10036000B2001930B6003108B2020318C7290130B3
:10037000B3020318C729B4020318C729B50203182A
:10038000C729B50AB40AB30A3108B207F9293008F7
:10039000B3020318E2290130B4020318E229B502BE
:1003A0000318E229B50AB40A3008B3073108B207C6
:1003B000031CF929B30A031DF929B40A031DF929FD
:1003C000B50AF9292F088038B4020318F82901303A
:1003D000B5020318F829B50A2F088038B407300889
:1003E000B307031CD629B40A031DD629B50AD6299A
:1003F0007A14B60BFC29072A0310B20DB30DB40D05
:10040000B50D0310FA0DF90DF80DB70DB329371C12
:100410000F2A0310F80CF90CFA0CB70C122AF70388
:100420000319542AB71B3B2A0310B20DB30DB40DA8
:10043000B50D3108B2020318272A0130B3020318A0
:10044000272AB4020318272AB502031C4A2A3008B7
:10045000B3020318322A0130B4020318322AB5025B
:10046000031C4A2A2F088038B40203183B2A0130A3
:10047000B502031C4A2AFA0A031D4A2AF90A031D77
:100480004A2AF80A031D4A2AF70A0319542AF80CC3
:10049000F90CFA0C2B08B6002F08B606B61F522A24
:1004A000F817582AF813582AF701F801F901FA0148
:1004B0008A110A12EC2C37080319CB2ABF003B081B
:1004C0000319CB2ABF0703186C2A7F30BF02031C15
:1004D000CB2A0319CB2A702A8130BF070318CB2AF5
:1004E0003F08F700F801F901FA013808C300C31703
:1004F0003908C2003A08C1001830BF00C001411CD1
:10050000992A3E08FA07031C8B2AF90A031D8B2A35
:10051000F80A0319C0173D08F907031C922AF80AC4
:100520000319C0173C08B900B9173908F8070318B0
:10053000C017C00DF80CF90CFA0CC30CC20CC10C9E
:100540000310BF0B7E2A0130F7070318CB2AF81BD4
:10055000B02AC30DFA0DF90DF80DF7030319CB2AD4
:10056000C31FC12AFA0A031DC12AF90A031DC12AA1
:10057000F80A031DC12AF80CF90CFA0CF70A031942
:10058000CB2A3808C0003C08C006C01FC92AF8178B
:10059000CF2AF813CF2AF701F801F901FA01003444
:1005A0008E30F7002A08F7022B08F9002C08F80013
:1005B000F917F7080319E72A0310F908031DE32ABE
:1005C000F8080319E72AF90CF80CF70BDC2AAB1F23
:1005D000EE2AF809F909F80A0319F90A8A110A1228
:1005E0000C2DF701F801F901FA01BF01C001C101A9
:1005F000C2013E083D043C043B0403192F2B20306C
:10060000C3000310B70DB80DB90DBA0DBF0DC00D65
:10061000C10DC20D3E084202031D182B3D084102C8
:10062000031D182B3C084002031D182B3B083F02FA
:10063000031C292B3B08BF023C08031C3C0FC002D3
:100640003D08031C3D0FC1023E08031C3E0FC202C1
:100650000314F70DF80DF90DFA0DC30B012B3F3004
:100660008400831300340408AF002E08B10003197E
:10067000522B2D08BA002C08B9002B08B8002A0804
:10068000B700BE01BD012030BC008230BB005B2240
:100690007A08AD007908AC007808AB007708AA00AA
:1006A000B10B392B2D08BA002C08B9002B08B80063
:1006B0002A08B7003708B63CB700FA013808BB0073
:1006C000B8170310B80CB90CBA0CFA0CF90CF80CEA
:1006D000F70CB70B612BBB1F782BF709F809F90949
:1006E000FA09F70A0319F80A0319F90A0319FA0AA9
:1006F0007A08AD007908AC007808AB007708AA004A
:10070000AD1F8F2BAF03AF16AA09AB09AC09AD091A
:10071000AA0A0319AB0A0319AC0A0319AD0A3B3044
:10072000B6009A30B500CA30B400B3010A30B10047
:100730002E080319AF0A2D08BA002C08B9002B089F
:10074000B8002A08B7003608BE003508BD003408D6
:10075000BC003308BB00F1220008AA00840A00088C
:10076000AB00840A0008AC00840A0008AD00FD302C
:100770008407F708031DCF2B2E0A31020319CF2B54
:100780002F080319D12B0F3931020319C92B031874
:10079000012CAF1B012C2F1BD12B2030FD2B203027
:1007A000AF05AF1EDF2BAF122E08031DAF03770876
:1007B000AF002D30B7004B212F08F700AF012E08F6
:1007C0003102031DED2B7708AF002E30B7004B210F
:1007D0002F08F7002030AF0500303030AF1EFD2B62
:1007E000AF122E08031DAF037708AF002D30B700FE
:1007F0004B212F08F700AF013030F7077708B7001B
:100800004B213608BA003508B9003408B80033085F
:10081000B700BE01BD01BC010A30BB00F1227A085D
:10082000B6007908B5007808B4007708B300B10BBA
:100830009B2B8A110A12252D2B08B2002F08B20615
:10084000B21F272C03110310AB1B03145A2C2B08C7
:10085000B2002E08B3002A08B3020319352CB21FC8
:100860005A2C0308013A83005A2C2F08B3002B0896
:10087000B3020319412CB21F5A2C0308013A83001A
:100880005A2C3008B3002C08B30203194D2CB21FA8
:100890005A2C0308013A83005A2C3108B3002D0862
:1008A000B3020319592CB21F5A2C0308013A8300D2
:1008B0005A2C03100034840183131F3083058316E0
:1008C00003170908C039890003131F129F12003053
:1008D0000317880083128701880189010313A0018F
:1008E000A101A201A301FF3083168500003086001C
:1008F000880009148914091583121F179F1783167E
:100900009F1783121F14831603170908C039890023
:1009100003131F129F1280300317880083120313E2
:10092000EE280530B8002620831686018312860142
:100930000130B800B9002821AA012A080C20AA0A0F
:10094000F700B7004B210B302A02031D9D2C01300C
:10095000B8000230B9002821AA012A081C20AA0ADE
:10096000F700B7004B2105302A02031DAD2C1C30C7
:10097000F8001F08C33978049F003230B8002620E1
:100980009F149F18C12C1E08FA0083161E0883129C
:10099000AA001E08AB0070297A08A3007908A200FB
:1009A0007808A1007708A0000230AA00FA30B80049
:1009B0002620AA0BD62C2308AD002208AC00210863
:1009C000AB002008AA006F30B1001230B000033035
:1009D000AF008030AE008F297A08A7007908A60002
:1009E0007808A5007708A400BA01B9014830B8001A
:1009F0008530B7002708BE002608BD002508BC00CA
:100A00002408BB005B227A08AD007908AC007808A6
:100A1000AB007708AA00D02A7908A9007808A800B6
:100A20000630B8000230B90028212030B7004B2131
:100A3000893084002708AD002608AC002508AB00EB
:100A40002408AA000230AE00332B2030B7004B211F
:100A50000230AA00FA30B8002620AA0B2A2DAD01D8
:100A6000AC014830AB008530AA002708B100260849
:100A7000B0002508AF002408AE001C240318422D46
:100A8000031D622D8316061083120610831686102E
:100A9000831286108316061183120611831686119F
:100AA000831286118316061283120612831686128B
:100AB0008312861283160613831206178316861373
:100AC00083128617AD01AC014830AB008430AA0018
:100AD0002708B1002608B0002508AF002408AE00A2
:100AE0001C24031CA42D2708AD002608AC002508F3
:100AF000AB002408AA00B101B0014830AF00853036
:100B0000AE001C24031CA42D8316861083128610AD
:100B10008316861283128616831606108312061019
:100B20008316061183120611831686118312861509
:100B300083160612831206168316061383120613F3
:100B400083168613831286132708AD002608AC008F
:100B50002508AB002408AA00B101B0014830AF005D
:100B60008430AE001C240318B72D031DD72D831627
:100B700006108312061483160612831206128316B9
:100B800086108312861483160611831206158316A7
:100B9000861183128611831686128312861283169B
:100BA00006138312061383168613831286132708EF
:100BB000AD002608AC002508AB002408AA00B1014E
:100BC000B001AF01AE011C240318E82D031DFF2D59
:100BD00083168601FF30831286000230AA00FA30A5
:100BE000B8002620AA0BEF2D8316860183128601FA
:100BF0000230AA00FA30B8002620AA0BFA2DB72C32
:020C000063008F
:04400E00F22CFF3F52
:00000001FF
;PIC16F887
